:100000000C944D000C946C000C946C000C946C00DF
:100010000C946C000C946C000C946C000C946C00B0
:100020000C946C000C946C000C946C000C946C00A0
:100030000C946C000C94AA000C946C000C946C0052
:100040000C946C000C946C000C946C000C946C0080
:100050000C946C000C946C000C946C000C946C0070
:100060000C946C000C946C000C946C000C946C0060
:100070000C946C000C946C000C946C000C946C0050
:100080000C946C000C946C000C946C009E01A50107
:10009000B501D701DE01E501EC0111241FBECFEF50
:1000A000D0E4DEBFCDBF11E0A0E0B1E0E0E0F8E0D9
:1000B00000E00BBF02C007900D92A233B107D9F741
:1000C00021E0A2E3B1E001C01D92A134B207E1F743
:1000D0000E9453020C94FE030C940000CF93C82F8F
:1000E0008A3019F48DE00E946E008091C00085FF77
:1000F000FCCFC093C60080E090E0CF9108958BE0E4
:10010000809381008DE790E0909389008093880030
:1001100082E080936F00109285001092840080919D
:10012000200190912101A0912201B091230180939F
:10013000360190933701A0933801B09339018FB7FE
:1001400080688FBF089510928100089581E08093A8
:100150003A0108951F920F920FB60F9211240BB619
:100160000F922F933F934F935F936F937F938F9350
:100170009F93AF93BF93EF93FF938091360190913C
:100180003701A0913801B09139010197A109B10956
:100190008093360190933701A0933801B0933901D1
:1001A000892B8A2B8B2B91F40E94A6008091200131
:1001B00090912101A0912201B091230180933601F9
:1001C00090933701A0933801B0933901FF91EF91DB
:1001D000BF91AF919F918F917F916F915F914F915F
:1001E0003F912F910F900BBE0F900FBE0F901F905D
:1001F00018956093200170932101809322019093C0
:1002000023016093360170933701809338019093F6
:1002100039010895CF92DF92EF92FF926B017C013A
:1002200060913B0170913C0180913D0190913E01B4
:10023000A70196010E946A02882309F458C020E0B1
:1002400030E0A901C701B6010E946A02811106C00F
:10025000E1E9F0E080818870808305C0E1E9F0E0A9
:1002600080818360808328E539E344E75FE3C70149
:10027000B6010E946A0288233CF48FEF9FEF9093AF
:1002800099008093980027C020E034E244EF56E4C0
:10029000C701B6010E948C0318162CF41092990025
:1002A0001092980018C020E030E040E053E4C7010D
:1002B000B6010E9491039B01AC0160E074E284EFFF
:1002C0009AE40E946F020E94E102615071097093EA
:1002D0009900609398001092950010929400C0923B
:1002E0003B01D0923C01E0923D01F0923E01FF9033
:1002F000EF90DF90CF90089580E4809390008BE0A2
:100300008093910060E070E0CB010E940A010895A3
:100310001092900010929100089580B1809587709E
:1003200080933301E0913F01F0914001E730F10506
:1003300008F062C0EA5BFF4F0C94610281E090E03C
:100340009093400180933F015BC0882339F082E0A5
:1003500090E09093400180933F0152C081E090E093
:100360009093400180933F014BC0813039F483E08A
:1003700090E09093400180933F0142C0823039F475
:1003800084E090E09093400180933F0139C0843035
:1003900039F485E090E09093400180933F0130C0B4
:1003A00086E090E09093400180933F0129C086E071
:1003B00090E09093400180933F0122C086E090E05E
:1003C0009093400180933F011BC086E090E09093A2
:1003D000400180933F0114C0811107C081E090E08B
:1003E0009093400180933F010BC086E090E0909392
:1003F000400180933F0104C01092400110923F01E0
:1004000080913F01909140018430910509F128F4D9
:10041000009749F0039769F008958530910529F117
:10042000069781F1089560E070E0CB010E940A0117
:10043000089580913201811106C00E947C0181E003
:100440008093320108950E9488011092320108952C
:100450008091340190913501873091051CF501960A
:1004600090933501809334010895809134019091E7
:10047000350118161906B4F401979093350180934D
:1004800034010895E0913401F0913501EE0FFF1F22
:10049000EE0FFF1FE050FF4F6081718182819381D9
:1004A0000E940A01089511B88FEF82B984B915B876
:1004B0001092400110923F010E947C010E948D0128
:1004C000FDCFEE0FFF1F0024001C0BBE0790F6911E
:1004D000E02D09940E94170308F481E008950E941A
:1004E00083020C9452030E944B0358F00E94440371
:1004F00040F029F45F3F29F00C943B0351110C9418
:1005000086030C9441030E94630368F39923B1F3BB
:10051000552391F3951B550BBB27AA276217730729
:10052000840738F09F5F5F4F220F331F441FAA1FBD
:10053000A9F335D00E2E3AF0E0E832D09150504079
:10054000E695001CCAF72BD0FE2F29D0660F771F27
:10055000881FBB1F261737074807AB07B0E809F00D
:10056000BB0B802DBF01FF2793585F4F3AF09E3F92
:10057000510578F00C943B030C9486035F3FE4F341
:10058000983ED4F3869577956795B795F7959F5FD5
:10059000C9F7880F911D9695879597F90895E1E021
:1005A000660F771F881FBB1F621773078407BA0780
:1005B00020F0621B730B840BBA0BEE1F88F7E095DB
:1005C00008950E94E8026894B1110C94860308957E
:1005D0000E946B0388F09F5798F0B92F9927B75165
:1005E000B0F0E1F0660F771F881F991F1AF0BA95D7
:1005F000C9F714C0B13091F00E948503B1E00895AD
:100600000C948503672F782F8827B85F39F0B93F9E
:10061000CCF3869577956795B395D9F73EF4909589
:100620008095709561957F4F8F4F9F4F0895990FDB
:100630000008550FAA0BE0E8FEEF16161706E807AC
:10064000F907C0F012161306E407F50798F0621BCD
:10065000730B840B950B39F40A2661F0232B242BA2
:10066000252B21F408950A2609F4A140A6958FEFC1
:10067000811D811D089597F99F6780E870E060E013
:1006800008959FEF80EC089500240A94161617062B
:1006900018060906089500240A9412161306140673
:1006A00005060895092E0394000C11F4882352F0D6
:1006B000BB0F40F4BF2B11F460FF04C06F5F7F4F8E
:1006C0008F4F9F4F089557FD9058440F551F59F075
:1006D0005F3F71F04795880F97FB991F61F09F3F2F
:1006E00079F087950895121613061406551FF2CF58
:1006F0004695F1DF08C0161617061806991FF1CFA8
:1007000086957105610508940895E894BB276627CE
:100710007727CB0197F908950E94170308F48FEF0C
:1007200008950E94A4030C9452030E94440338F0DD
:100730000E944B0320F0952311F00C943B030C9482
:10074000410311240C9486030E94630370F3959F68
:10075000C1F3950F50E0551F629FF001729FBB27B8
:10076000F00DB11D639FAA27F00DB11DAA1F649F54
:100770006627B00DA11D661F829F2227B00DA11D07
:10078000621F739FB00DA11D621F839FA00D611D8D
:10079000221F749F3327A00D611D231F849F600DAE
:1007A000211D822F762F6A2F11249F5750409AF0D7
:1007B000F1F088234AF0EE0FFF1FBB1F661F771F63
:1007C000881F91505040A9F79E3F510580F00C942E
:1007D0003B030C9486035F3FE4F3983ED4F3869585
:1007E00077956795B795F795E7959F5FC1F7FE2BCE
:1007F000880F911D9695879597F90895F894FFCFE6
:10080000A4D082437BD49243A4D0A443719DAE4331
:100810000000C4430000DC43A4F0F64300D00244CF
:100820000100000000000002000000006E00000057
:020830000000C6
:00000001FF
